S01600006C65645F73747269705F6765636B6F2E733337B0
S113000000100020F5060000CB280000CB280000DB
S1130010CB280000CB280000CB280000CB28000010
S1130020CB280000CB280000CB280000CB28000000
S1130030CB280000CB280000CB280000CB280000F0
S1130040CB280000CB280000CB280000CB280000E0
S1130050CB280000CB280000CB280000CB280000D0
S1130060CB280000CB280000CB280000CB280000C0
S11300708D230000CB280000CB280000CB280000F3
S1130080CB280000CB280000CB280000CB280000A0
S1130090CB28000099020000CB280000CB280000E8
S11300A0CB280000CB280000CB280000CB28000080
S11300B0CB280000CB280000CB280000CB28000070
S11300C0CB280000CB280000CB280000CB28000060
S11300D0CB280000CB280000CB280000CB28000050
S11300E0CB280000CB280000CB280000CB28000040
S11300F0CB280000CB280000CB280000CB28000030
S1130100CB280000CB280000CB280000CB2800001F
S1130110CB280000CB280000CB280000CB2800000F
S1130120CB280000CB280000CB280000CB280000FF
S1130130CB280000CB280000CB280000CB280000EF
S1130140013800D0FCE770470348044B834202D0D7
S1130150034B03B1184770472810002028100020D3
S113016000000000064B0749C91A891048BF013135
S1130170491003D0044B0BB101481847704700BF26
S113018028100020281000200000000010B5064CA4
S1130190237843B9FFF7D8FF044B13B10448AFF3F6
S11301A000800123237010BDAA1400200000000069
S11301B0742E000008B5054B1BB105490548AFF383
S11301C00080BDE80840FFF7CDBF00BF000000007D
S11301D028100020742E0000A3F5803A704700BF59
S11301E0174B002B08BF134B9D46FFF7F5FF00216B
S11301F08B460F461348144A121A02F009FC0E4BA0
S1130200002B00D098470D4B002B00D098470020BE
S1130210002104000D000D48002802D00C48AFF363
S1130220008002F09BFA2000290002F0BCFA02F0E0
S113023083FA00BF00000800000000000000000076
S11302400010002028100020B0140020000000003E
S11302500000000013B50D4C00F02CF8204600F00F
S113026049F80023FF2219462046CDE9003302F065
S1130270A4FA074B2046D96902F0ADFA2046054995
S113028002B0BDE8104000F099B800BF4010002053
S11302900080045070800450044B054A1B6D1365A4
S11302A09B0701D500F01AB8704700BF0000045046
S11302B00020045007B5074B1868019001A801F00D
S11302C0E9FA4FF40012044BC3F880211A6003B01A
S11302D05DF804FB602A000000E100E00222044B08
S11302E0DA604FF48072A3F520431A61704700BFAF
S11302F00080045070B5012188B006463A2000F011
S113030069FD0121242000F065FD00230025184625
S11303100422082101F076FA0F2200210DF11100C8
S113032002F076FB0D22294668468DF8105002F043
S11303306FFB02231B4C8DF801301B4B204604A994
S1130340019301F039FC0122184B2946C3F87C259E
S11303504FF400222046C3F880256A4601F074FC5D
S1130360242000F061FDBDF812300133B0FBF3F539
S11303700F4BB5FBF3F5236BDB0704D440F2BE410E
S11303800C4802F0B6FA01231022E561E3600A4B3F
S113039000219A61304640F2444208B0BDE8704002
S11303A002F036BB008004500001030000C003507B
S11303B000350C00642A00000090045030B50D464E
S11303C0044689B060B359B34FF40033002100935D
S11303D004AB10221846CDE90111039102F018FB79
S11303E0104A243404920322CDE905450E4C8DF8BD
S11303F01C200FC884E80F000222E37862F3830311
S11304004FF40012E370094BC3F880211A604FF0D7
S11304100042074B69465A650120224601F084FADE
S113042009B030BD601010308414002000E100E0F9
S11304300010045010B5234C00F086FE01F074F84F
S1130440236F23F0070343F00303236702F066FAE4
S11304501D4B00209B6A9B075EBF01221B4B9A62C7
S1130460D4F8203123F0030343F00203C4F820310D
S1130470D4F8243123F0070343F00203C4F82431F1
S1130480D4F8403123F0030343F00203C4F84031AD
S1130490D4F8603123F0030343F00203C4F860315D
S11304A0D4F8403223F0030343F00203C4F840328B
S11304B0D4F8003223F0070343F00203C4F80032F7
S11304C010BD00BF0080005000C0005000E000508C
S11304D008B501F017FB01280ED1104B04205A6E09
S11304E04FF480230E49520358BF0E4A4B6601F560
S11304F01041086258BF536601F028FD02F0E1F98B
S113050001F0B4FC01F00CFD01F0D2FCFFF792FF06
S113051001F0BCFCBDE8084002F0C8B900800050FE
S11305200090005000A0005007B5064B69460093A8
S1130530002305488DF8043000F0E6F903B05DF8B7
S113054004FB00BF00350C0000100020082808B58B
S113055019D00FDC022804DC002814DC4FF4A0714D
S113056003E00428FAD140F207110F4802F0C1F960
S11305700E2008BD20280BD0402811D01028EDD122
S113058040F22111F1E7042200231146184603E04A
S1130590042200231146012001F034F90020E8E789
S11305A0002304221946F1E7D72A00000822014B50
S11305B01A67704700D003500822014B1A6770472E
S11305C000E00350F0B5404D89B001AC0FCD0FC42D
S11305D095E8070084E80700012401213A2000F08F
S11305E0F9FB3A4F0121282000F0F4FB384B384640
S11305F001A903938DF8124001F0D4FB2346042291
S11306000021022001F0FEF82246214600230220A8
S113061001F0F8F8022123460846042201F0F2F81A
S1130620042203212346022001F0ECF84FF00213C8
S1130630284D0226C5F83036A3F58033C5F82C368C
S11306401C23C5F834664FF44870C5F81C3601F015
S1130650B7FE1420FFF7B0FF01F0B2FE2320FFF72E
S1130660A5FF01F0ADFEB9213846FFF7A5FF02F062
S11306709AF9FFF79BFF002330461A46194601F00A
S1130680C1F8002321461A46304601F0BBF8234640
S113069031463046002201F0B5F8234600220321FA
S11306A0304601F0AFF8384601F044FB0021282021
S11306B0C5F83016C5F82C16C5F83416C5F81C163E
S11306C000F088FB09B0F0BD182B000000C00550F5
S11306D000127A0000C003500348044A0449121A65
S11306E0921002F0F3B800BFB02E0000B02E00004C
S11306F0B014002008B500F02FF8FFF7EDFF124BFF
S113070012498B4212D30020114B12498B4218D349
S1130710FFF766FD186850F82240586840F82240F8
S1130720013298688242F5D30C33EAE70022F8E7F5
S11307301C6844F8220001325C68A242F8D30833F2
S1130740E4E70022F8E700BF7C2E0000882E0000BA
S1130750882E0000882E00004FF400414FF0FF3037
S1130760124B134A10B59A60D3F8882042F47002F1
S1130770C3F888200F4A916601F1884101F50052BF
S113078010664FF6DF7050660220C3F8D000BFF346
S11307904F8FBFF36F8F08244FF440330648C0F8DF
S11307A08041D36004600B6110BD00BF00ED00E028
S11307B0000000000090005000E100E0014B1868C8
S11307C0704700BF0C100020084B1B6F03F0070399
S11307D0022B04D0032B05D0012B05D0FEE7044BDC
S11307E018687047034BFBE70348704700800050CC
S11307F00C10002014100020002D310108B5FFF763
S1130800E3FF054B1B6FC3F303330133B0FBF3F07A
S1130810024B186008BD00BF008000500810002083
S11308200048704700B4C404014B1868704700BF07
S113083014100020054B1860054B1B6F03F00703D1
S1130840032B01D1FFF7DABF704700BF141000205B
S11308500080005000487047002D3101014B18689A
S1130860704700BF1010002008B5104B984216D0F6
S113087003F58043984215D003F58043984211D084
S113088003F5804398420DD003F58043984209D084
S1130890074840F2D22102F02CF8002008BD4FF0A6
S11308A0FF30FBE74FF6FF70F8E700BF008004500D
S11308B0642A000008B5114B984217D00DD8A3F54F
S11308C00043984214D003F58043984212D00C4858
S11308D0682102F00EF8802008BD0A4B98420BD024
S11308E003F580439842F2D15220F5E72620F3E73E
S11308F02420F1E72520EFE72720EDE7000005504D
S1130900342B00000040055070B504468AB00068DE
S11309100D46FFF7CFFF0121064600F05BFA0121E7
S11309203A2000F057FA2B790422A179607900F07B
S113093069FF0D22002102A802F06AF802238DF853
S11309400930394B02AA03932B792068591E4B4274
S11309504B4121798DF8123001F076F92268334B3E
S11309609A4258D003F580439A4256D003F5804307
S11309709A4254D003F580439A4252D02C482D49D0
S1130980A3F5BD33A03B824208BF0B46A079627930
S1130990217942EA004243F82120304600F044FA2B
S11309A02B682568B0FBF3F0013801902846019EBE
S11309B0FFF75AFF864204D940F2BC411E4801F0B9
S11309C098FF2B6BDA0704D440F2BE411A4801F0B9
S11309D090FFEE61256826792846FFF745FF2B6BCB
S11309E0DB0704D440F24231134801F082FF05EBE7
S11309F0461500260F223146AE660DF1190002F0AD
S1130A0007F80123206806A98DF8183001F0D4F8FE
S1130A1030460AB070BD094BB8E7094BB6E7094B3D
S1130A20B4E7094BB2E700BF0001030000800450A3
S1130A300080055000C60350642A000080C503509E
S1130A40A0C50350C0C50350E0C50350044BD3F800
S1130A508420D206FBD4D3F88400C0F381107047FD
S1130A600040005038B5104B0546D3F820310C46F1
S1130A7003F00303022B0BD0032B0DD0012B0FD15A
S1130A80FFF79CFE052305B1286004B1236038BD3F
S1130A90FFF7CAFE0323F6E7FFF7DCFE0223F2E7C3
S1130AA001230020EFE700BF00800050F7B50027C6
S1130AB0114B0197D3F88041064604F00304012C3E
S1130AC00D4608D0022C12D041F2B1310B4801F08E
S1130AD010FF3C4604E0394601A8FFF7C3FF0F248A
S1130AE00EB1019B336005B12C6003B0F0BDFFF77C
S1130AF0B1FE0190F4E700BF00800050682B0000B5
S1130B0038B51A4B0546D3F824010C4600F007000B
S1130B10062821D8DFE800F0280410181C0C140063
S1130B20FFF74CFE052305B1286004B1236038BDEE
S1130B30FFF744FE0623F6E7FFF776FE0323F2E70A
S1130B40FFF772FE0423EEE7FFF784FE0223EAE7D1
S1130B5001F0C7FE0723E6E7054840F6A87101F057
S1130B60C8FE00231846DEE70123DCE700800050BE
S1130B70682B000038B5104B0546D3F840310C46BD
S1130B8003F00303022B0BD0032B0DD0012B0FD149
S1130B9001F0A9FE092305B1286004B1236038BD22
S1130BA0FFF75CFE0823F6E701F0A0FE0B23F2E753
S1130BB001230020EFE700BF0080005038B5164B3A
S1130BC00546D3F800020C4600F00700042819D8A3
S1130BD0DFE800F020030B0F130001F084FE09236B
S1130BE005B1286004B1236038BDFFF737FE082340
S1130BF0F6E701F07BFE0B23F2E7FFF7FFFD0E2380
S1130C00800AEDE7054841F26F4101F072FE0023CE
S1130C101846E5E70123E3E700800050682B000055
S1130C2038B5124B0546D3F840320C4603F00303A3
S1130C30022B0BD0032B0DD0012B0FD101F053FE4F
S1130C40092305B1286004B1236038BDFFF706FE0F
S1130C500823F6E701F04AFE0B23F2E7044841F2C9
S1130C60FA3101F046FE00231846EAE700800050FE
S1130C70682B000038B5104B0546D3F860310C469C
S1130C8003F00303022B0BD0032B0DD0012B0FD148
S1130C9001F029FE092305B1286004B1236038BDA1
S1130CA0FFF7DCFD0823F6E701F020FE0B23F2E753
S1130CB001230020EFE700BF0080005010B40F4C68
S1130CC00B46D4F8204204F00304012C0ED0022C6D
S1130CD010D008B1002101600BB100221A6040F667
S1130CE0D27107485DF8044B01F003BE5DF8044B74
S1130CF0FFF7B8BE5DF8044BFFF73CBF008000501F
S1130D00682B0000B0F5207F10B534D009D8B0F5B9
S1130D10007F2AD003D898B1B0F5C07F10D000244A
S1130D2021E0B0F5607FFAD1154BD3F88030C3F3DE
S1130D3001149B0617D5032C15D040F295210FE022
S1130D400F4B1C6F230B13F00E0FC4F303340AD0A4
S1130D50072C08D00F2C06D0032C04D040F2852198
S1130D60084801F0C6FD601C10BD054BD3F8904047
S1130D70C4F30464F7E7024B1C6FC4F38024F2E766
S1130D8000800050682B00004FF400320E4B10B569
S1130D9004469A660020FFF7B5FF604341F67132BE
S1130DA00A4C0B4BA04294BF00200120D969DA639E
S1130DB09A6822F4401242EA00529A60CA0344BF7D
S1130DC00022DA6310BD00BF00900050005A620296
S1130DD00000035070B5460904460D460ED140F29A
S1130DE02F310D4801F085FD334604F01F047DB119
S1130DF003F580530122A2401A6070BD012E05D074
S1130E00064B074A022E18BF1346EEE7054BECE7E4
S1130E1003F50053EEE700BF682B00006880005024
S1130E206082005064800050002330B5802885B073
S1130E300446019374D02AD8002877D0A0F1200466
S1130E40412C32D8412C30D8DFE804F07073707331
S1130E50888888887373923FA8653F7373732F2FB4
S1130E602F2F2F2F8D57737373B2AD732F2F2F2FF7
S1130E702F2F2F2F2F2F2F2F2F702F707070882F21
S1130E802F2F2F2F2F2F2F2F2F2F2F2F7070B0F5A5
S1130E90806F63D024D8B0F5007F55D00BD8B0F55F
S1130EA0807F6AD0B0F5C07F40D040F2944143487F
S1130EB001F01FFD37E0B0F5607F45D0F5D8B0F5FF
S1130EC0207F36D0B0F5407FEFD1FFF797FC044682
S1130ED04FF42070FFF716FFB4FBF0F4640831E020
S1130EE0B0F5C06F5AD00DD8B0F5A06F3BD0B0F5B7
S1130EF0B06F3DD0B0F5906FD7D1002101A8FFF7B6
S1130F00FFFD10E0B0F5E06F4DD0B0F5F06F4FD0BD
S1130F10B0F5D06FC9D1002101A8FFF74FFE02E060
S1130F20FFF752FC0190019805B030BDFFF766FC55
S1130F30F8E7FFF763FC04464FF42070FFF7E2FE86
S1130F40B4FBF0F40194EEE7FFF73EFC05462046BF
S1130F50FFF7D8FEB5FBF0F50195E4E7002101A801
S1130F60FFF780FDDFE7002101A8FFF7A7FEDAE71E
S1130F70002101A8FFF79AFDD5E702934FF0E02383
S1130F801B695B0705D5FFF739FC0290029B0193AF
S1130F90C9E703A902A8FFF7EDFDF7E7002101A8BF
S1130FA0FFF7E8FDBFE7002101A8FFF739FEBAE724
S1130FB0002101A8FFF75EFEB5E700BF682B000023
S1130FC008B58020FFF730FF034B98429EBF4FF4D3
S1130FD08032024B1A6708BD005A620200A000501A
S1130FE01FB50023B0F5807F01937FD027D8382820
S1130FF000F09C800BD82438092810D809280ED872
S1131000DFE800F06F6F6F6F0D0D670D36855228A6
S113101067D007D83D283AD03E2800F08C8040F2B3
S1131020795152E08028FAD1454B1B6F03F0070336
S1131030013B032B47D8DFE803F044413F75B0F58B
S1131040D06F64D019D8B0F5A06F6FD00AD8B0F5BE
S1131050806F46D0B0F5906FE1D1002001A9FFF771
S11310604FFD3AE0B0F5B06F33D0B0F5C06FD6D1D4
S1131070002001A9FFF77EFD2FE0B0F5006FECD052
S11310800AD8B0F5E06F56D0B0F5F06FC7D10020A4
S113109001A9FFF7EFFD20E0B0F5086FBFD1284BA1
S11310A0D3F8003103F00303022B35D0032B37D0E0
S11310B0012B39D1FFF7B8FB032300E0052301938B
S11310C00BE00223FBE740F2C6411E4801F011FC8D
S11310D003E0002001A9FFF7E9FC019805B05DF8E1
S11310E004FB002001A9FFF7BDFCF6E702934FF0D3
S11310F0E0231B695B0705D5FFF780FB0C230393F3
S1131100039BDCE703A902A8FFF734FDF8E70020FE
S113111001A9FFF753FDE0E7FFF7A0FB0823CEE7A3
S113112001F0DFFB0723CAE70123C8E7002001A978
S1131130FFF7C4FDD1E7002001A9FFF771FDCCE75B
S113114000800050682B00004FF40022034B5A66C5
S1131150012203F580439A62704700BF009000505B
S1131160F8B5036804460F2B04D940F66D316C487A
S113117001F0BFFB63680F2B04D94FF43761684853
S113118001F0B7FBA3680F2B04D940F67331644810
S113119001F0AFFB237B0F2B04D940F67631604876
S11311A001F0A7FB637B0F2B04D940F679315C482F
S11311B001F09FFBA37B3F2B04D940F67C315848B8
S11311C001F097FBE37B3F2B04D940F67F31544871
S11311D001F08FFB2369032B04D940F68231504878
S11311E001F087FB6369032B04D940F685314C4831
S11311F001F07FFBE369012B04D940F688314848AC
S113120001F077FB8020FFF7EBFE032800F08780D6
S11312104FF40022434B02215A6645F60E03424A1C
S1131220C2F88030414B9962012103F580539962E1
S1131230936DD903FCD4D4E900131B0543EA01637D
S1131240E17B94F820500B43217BE77E43EA014382
S1131250617B6D0143EA0133A17B43EA811313618E
S11312609169D4E904031B0643EA806301F0004159
S11312700B43A17E94F823000B43217E43EA0143F0
S1131280617E43EA01239361136AE66923F00D0347
S113129094F8221043EA8703002E2DD11362966A34
S11312A094F8213045EA031326F033052B4343F029
S11312B0010393621E4D1C4B9A6D35EA0202FBD169
S11312C002221A4DAA621A659A6D5200FCD41A6958
S11312D0A56822F4700242EA05521A614FF00042F6
S11312E0124B9A6119B9022203F580539A6278B9B4
S11312F00122104B9A620BE0334343F0080313625C
S1131300936A23F0330303432B4343EA4103936279
S113131094F824301BB1044B074AC3F88020F8BD6D
S1131320682B00000090005000C0005000D0005016
S11313300300014000E00050F1A7FFFF014B93F9C7
S113134000007047AB140020436810B5072B044617
S113135004D940F6B3512A4801F0CBFAA368032B11
S113136004D940F6B551264801F0C3FA2378032B7B
S113137004D940F6B751224801F0BBFA94F9013080
S1131380002B04DA40F6B9511D4801F0B2FA4FF4CB
S113139080011C4A637851664FF4D151022002F552
S11313A0B832516218494F2B48604FF0010028BFF2
S11313B04F2301F5805148601169C903FCD4217899
S11313C043EA01235361D4E901131B0143EA0123D6
S11313D0617B0B43217B43EA41039360E37BA17B65
S11313E01B0143EA4113617C0B43217C43EA410323
S11313F05360A37C13B16FF4D153536210BD00BF8B
S1131400682B00000090005000100250014B18801F
S1131410704700BF1A100020014B1880704700BFAE
S113142018100020B0F5207F10B565D00ED8B0F5A7
S1131430007F4FD003D800B3B0F5C07F1DD040F279
S11314401231BDE81040344801F053BAB0F5607F62
S1131450F5D14C1E012C06D9042904D04FF43D715A
S11314602D4801F046FA2D4AD2F8803023F030039B
S113147043EA0413C2F8803010BD4C1E012C0AD973
S1131480102903D8264BCB40DB0704D440F2C721F4
S1131490214801F02EFA01F02EFA01F03AFA4FF445
S11314A08031204B1D4A1967136F23F4704343EABC
S11314B004331367FFF7A2F90446FFF7C7FAC0F134
S11314C00201204601F01FFA00F03EF8BDE810408A
S11314D0FFF776BD4C1E1F2C04D940F206310E488E
S11314E001F007FA0D4AD2F8903023F0F85343EA9A
S11314F00463C2F89030BFE74C1E012C04D94FF4AA
S11315004371054801F0F5F9044A136F23F480632D
S113151043EA84231367AFE7682B00000080005080
S1131520100101000090005008B50121022000F0D4
S113153027F801F0E0F901F0ECF94FF48032014BA7
S11315401A6708BD0090005008B54FF4C070FFF74B
S11315506BFCBDE808400449884294BF0121022184
S11315604FF42070FFF75EBF80F0FA02034A01795E
S1131570D36E23F030030B43D36670470040005012
S1131580F8B50446244BD3F88420D006FBD4D3F812
S11315908430C3F381139C423CD0FFF715F9012C2E
S11315A005460BD11D4B984204D940F292711C4858
S11315B001F09FF90121284601F0A5F901F0C3F9D2
S11315C04FF00072174B07465A66204601F0CBF9DC
S11315D04FF48063104E621E93403367736E9A011A
S11315E003D4D6F884309B060AD5384601F0AFF907
S11315F0022C0FD12846BDE8F840002101F083B940
S1131600D6F884309906E9D54FF4F461044801F022
S113161070F9E3E7F8BD00BF00400050005A6202D1
S1131620972B00000060005010B50C4608B9FFF776
S1131630CBF8074B21461B783BB1064B984204D8A4
S11316400120BDE81040FFF79BBF0220F9E700BF6F
S1131650AC140020005A62024FF0004238B5264B09
S113166026495A6601224A604AF6CD3103F50B2316
S11316705D6C1964154030BB9968C9070BD400240C
S113168001221F4B5A6015B11E4B1F4A1A6401F008
S11316906BF9204638BD1A498A601C4AD96ACC07BE
S11316A005D4904201D10724EAE70130F6E79042DD
S11316B0E5D1F8E70132DC6A14F0080406D08A4266
S11316C0F8D10724DFE700221049F4E78A42F8D072
S11316D020220B4B0B495A620122A3F580539A60D6
S11316E023460A4A486A800603D49342E9D0013368
S11316F0F8E79342C7D1E4E7009000500050095046
S113170000600950004009503254FFFF40420F006E
S11317104FF0004238B5174B174C5A66012203F5B7
S11317200C235A604AF6CD33656C236443789340A6
S11317301343124AD363C3788178A2689B0043EAB7
S1131740011322F074021343A3600279837943EAFC
S1131750022323614279C37943EA02236361007857
S1131760FFF77AFFEB0744BF054B236401F0FCF855
S1131770012038BD00900050004009500040005046
S11317803254FFFF032838B504460D4605D80B4BE9
S113179033F81030CB40DB0704D44FF4866108489B
S11317A001F0A7F830220123544341F2100204F15E
S11317B0A044AB4004F57034A35038BD682C00003D
S11317C0C62B0000032838B504460D4605D80B4B3C
S11317D033F81030CB40DB0704D440F20141084811
S11317E001F087F830220123544342F2100204F13D
S11317F0A044AB4004F57034A35038BD682C0000FD
S1131800C62B00000328F8B504460D4616461F46AD
S113181005D81C4B33F81030CB40DB0704D44FF40D
S1131820B071194801F065F826B129462046CFB1B8
S1131830FFF7A8FF04EB4403072D4FF00F014FEA15
S1131840031312D8A80006FA00F281400F48184486
S113185001F08BF8AEB92946204677B1BDE8F840CF
S1131860FFF790BFFFF7AEFFE4E7A5F108008000A3
S113187006FA00F281400648E9E7BDE8F840FFF7C0
S1131880A1BFF8BD682C0000382C000004C0035030
S11318900CC0035010B5044618B991211F4801F03B
S11318A028F823781B0613F0604F03D092211B48BD
S11318B001F01FF8E3780F2B03D99521174801F0A5
S11318C018F801212020FFF785FA01212120FFF7D4
S11318D081FA0122124B5A60227812069A606178CA
S11318E0A27842EA01429A61FF229A6200229A6334
S11318F01A644FF000425A654FF0FF324FF4001162
S113190003F500531A65074AC2F88011E3781B01F6
S1131910DBB282F81533116010BD00BF702C0000DB
S11319200000045000E100E02DE9F0410126C3B2BB
S1131930072805460C46174606FA03F603DDDE21A2
S1131940334800F0D6FF1CB9DF21314800F0D1FF45
S1131950236823F47C1323F00F031BB1E2212C48EA
S113196000F0C7FFA37A1B0413F47C0F03D0E72114
S1131970274800F0BEFFE37A1B0513F07E6F03D007
S1131980E921234800F0B5FF237B5B0513F0FE5FDC
S113199003D0EB211E4800F0ACFF1E4BDFF87C8027
S11319A01E65226803F5005343F82520302202FB0C
S11319B00585637B27F003072B66E37AA27A1B0570
S11319C043EA0243227B43EA4253EB652F6700F06C
S11319D0C1FFD8F85430227A3343C8F854300E4B40
S11319E002B11E64627A02B19E632279A37943EA4A
S11319F00243084A93616179E37943EA0143064962
S1131A008B61064B56639E64BDE8F04100F0A8BFAD
S1131A10702C0000002004500010045000000450FA
S1131A20022838B505460C4603D94C210C4800F071
S1131A3060FFE378627821785B0143EA82032279CC
S1131A400B4343EA02130C226A4302F1B0421363CC
S1131A50012902BFA278034B43F8252038BD00BFFB
S1131A60112D0000E880035008B54FF0B0435A68C8
S1131A706AB958B15B680BB100F086FF01210D4BC8
S1131A80596000F081FF4FF0B043D96008BD5B6836
S1131A900BB100F079FF0028F0D100F075FF4FF092
S1131AA0B0430222DA6000F06FFF0122024B5A6059
S1131AB0ECE700BF00100058002000584FF0B04180
S1131AC04B6810B50BB100F05FFF01220B4BC478DB
S1131AD05A608378934043EA840344782343047927
S1131AE043EA0413447943EAC4038B60044B5A6009
S1131AF00378C3F10203CB6010BD00BF002000587F
S1131B0000100058024B1868C0F30740704700BF2C
S1131B100080E00F0B4B984211D003F580439842AC
S1131B200DD003F58043984209D003F580439842D1
S1131B3005D003F58043C31A584258417047012029
S1131B40704700BF0080045030B4184CA04214D039
S1131B5004F58044A0421BD004F58044A04219D06F
S1131B6004F58044A04217D004F58044A04215D067
S1131B7030BC8F210E4800F0BCBE002006250D4C61
S1131B8073B105FB001004EB8004E26030BC7047C5
S1131B900120F3E70220F1E70320EFE70420EDE75B
S1131BA005FB0011120204EB8104EEE700800450EF
S1131BB0412D00000081035038B505460C46FFF75F
S1131BC0A9FF18B9B4211F4800F093FE284600F07D
S1131BD0E3FE012205F500531A63237961881B0291
S1131BE043EA8143A17A0B43617843EA8113E17AA2
S1131BF043EAC113217B43EA4113617B43EA0113A6
S1131C00A17B43EAC103E17B43EAC123A17943EA0F
S1131C100143E17943EA41436B6005F580531A635C
S1131C2022780AB90223EB6000236B626379217A7C
S1131C301B0143EA8103617A0B43AB600AB10123C0
S1131C40EB6038BD412D0000F8B506460F4614463A
S1131C50FFF760FF20B94FF48671234800F049FE76
S1131C60022F04D940F20D111F4800F042FE304605
S1131C7000F092FE012206F500531A63637AE279BA
S1131C801B0143EA0253A27906EB47151343E27A98
S1131C9043EAC2432B66237A13B3237B2A6E394665
S1131CA042EA43422A66013B18BF0123A278FFF7A8
S1131CB04BFF012306F580563363637822781B06B5
S1131CC043EA8263E27843EA0233227943EA8223D5
S1131CD0627943EA0223A27A43EA82036B66F8BD7F
S1131CE02B6E2B66E5E700BF412D000070B506465C
S1131CF00C46154622B940F2A6210C4800F0F9FD25
S1131D0024B94FF42070FFF78FF804466D00013CAE
S1131D10B4FBF5F4064B250213EA042304D040F285
S1131D20CB21024800F0E5FDF56170BD722D000085
S1131D30070080FF174B10B59842044608D003F5FE
S1131D408043984204D040F25E41134800F0D1FD34
S1131D50012204F580535A6040F6AA6341F2050259
S1131D60636100230D49A360E365E26004F500525A
S1131D702361E361E36491640649A3658C4203D162
S1131D8023650023636502E005498C42F8D00123F2
S1131D90536010BD00C00550722D0000FFFF01000C
S1131DA00000065038B52E4B044698420D4608D024
S1131DB003F58043984204D040F28131294800F071
S1131DC098FD2046FFF7B6FF012304F580525360C7
S1131DD02B8AA16843F001030B43A97B43EA8123C7
S1131DE0A360A368297D43EA4173A360AB7C4BB134
S1131DF01B49EB7C8C422BD1A1F51031C1F88C31FD
S1131E008023D3652B7B2046D5E9011243F480530C
S1131E10E360FFF76BFF6B7B0BB1102363616B7D9A
S1131E201BB1A36843F48033A360AB7D1BB1A368EB
S1131E3043F40043A360EB7D2A7E1B07120503F0E5
S1131E40E04302F4E0021343A3652B78636138BDD9
S1131E5005498C4204BFA1F52031C1F89C31CFE77C
S1131E6000C00550722D00000000065007B56B46F7
S1131E70054A1068516803C36846FFF749FC00200F
S1131E8003B05DF804FB00BFA32D000013B50024CC
S1131E90064A6846536F43F00103536700948DF874
S1131EA00440FFF763FB204602B010BD0040005021
S1131EB030B58BB06C46174D0FCD0FC40FCD0FC48A
S1131EC095E8030084E80300134BD3F84C21120374
S1131ED01CD5A3F5FE431C884FF6FF739C4208BF34
S1131EE078248DF81940FFF729FA204480F308007C
S1131EF08DF818000948FEF79DFC6846FFF730F995
S1131F003220FFF789FA00200BB030BDD3F85041DE
S1131F10E4B2E6E7AC2D00000080E00F00F04902D7
S1131F2030B5094D87B001AC0FCD0FC42B6801A8A3
S1131F30236025238DF80530FFF706FA3220FFF7DA
S1131F4065FA002007B030BDD42D00006FF0040303
S1131F50502110B50A480B4C13F0800F03F1010215
S1131F6007D12344402A83F800131346F4D10020F8
S1131F7010BD03F00F03043B034419761346EBE74B
S1131F8000ED00E000E100E030B50E4C4161236853
S1131F908BB9206083600DE0891A9A681D464161FF
S1131FA06AB113465A698A42F6D935B1A860521A01
S1131FB083605A6130BD0025F4E72060F7E798603C
S1131FC08260F7E79C14002038B500F0F8FC002587
S1131FD0084B094C1A682368C31A2AB123B1516902
S1131FE0994203D3C91A5161206038BD55615B1A07
S1131FF09268F2E79C1400209814002038B5134D21
S11320002B685B6993B1124A022014681C4400F0E7
S113201093F9204600F05EF900230E492A680B70FC
S1132020D088800709D501230B7038BD022000F049
S113203083F9022000F0A2F9EEE79268002AF4D0B6
S113204050690344012BEBD9EFE700BF9C14002037
S113205098140020AE14002000220C490B687BB1B8
S113206083420AD183687AB1936083681BB15A6949
S113207041690A445A61002070471A469B68EEE79A
S11320800028EFD0022070470B60EEE79C1400207C
S113209070B500F05FFC144E05463478FCB9134B60
S11320A01C60134B1C60134B1C8000F0D5F80120FE
S11320B000F042F900F08AFC0F4B0246186020B988
S11320C0284600F04DFC232070BD234640F2E73142
S11320D00A4800F0A1F90A4B18600123337028461E
S11320E000F03EFC0020EFE7AF1400209C14002019
S11320F098140020A8140020A014002018FCFFFF4E
S113210094140020C2072DE9F84304460BD54E4A27
S1132110138801339BB21380FFF756FF4B4B1B68A8
S11321200BB1FFF76BFFA30740F18B8000F012FCAB
S11321304FF0000805464646FFF746FF434F3C680C
S11321400CB163698BB10022414B012E1A7003D18B
S113215018F0020F18BF1E70002C6ED0FFF74EFF50
S11321602846BDE8F84300F0FBBB23465A693AB958
S11321701A792179914288BF1C469B68002BF5D1BE
S1132180284600F0EDFB2569DDB100F018FCA269DA
S1132190A0EB02084FEAE873A84573F1000311DBD2
S11321A023691344A361E368B4F80680013613B1CC
S11321B020462168984700F0CDFB0546FFF704FF51
S11321C0BDE7A84600F0C6FB81462046FFF744FF62
S11321D0484600F0C5FB2369002BE4D0B5EB0805A5
S11321E04FEAE87363EB4303012D73F1000304DA50
S11321F040F22A51174800F07CFBA38B33B1E28BE9
S113220013449BB2B3F57A7F0FD2E38300F0A2FBB1
S1132210804629462046FFF7B7FEA3692269404657
S11322201344A36100F09CFBBDE7A3F57A73E38339
S1132230A369013D013BA361E8E7022000F088F8AF
S11322408EE7BDE8F88300BFA81400209C1400208A
S1132250AD140020E82D00001FB500241A4B012105
S113226018689A880290D3F806009B7A00903E2062
S1132270ADF80C208DF80430FEF7ACFD8DF8084065
S113228000F09BFB8DF80C0002A8FFF717FC6946D1
S113229001208DF80040FFF7C3FB40F2FF320B4BE7
S11322A09A615A614FF0B042936A13F00803FBD16C
S11322B013620120FFF7D8FB4FF48052044BC3F89C
S11322C080211A6004B010BD2B2E0000002000589D
S11322D000E100E010B5044600F035FB4FF0B042D9
S11322E0936A1907FCD4136A116C5269520604D418
S11322F0CA1A032A01D88B420ED1E21A022A98BFC5
S1132300DC1CB4F1FF3F38BF013C4FF0B043402226
S11323101C6403F580539A6100F019FB054A137895
S11323203BB14FF0B041CB6B43F00203CB630023CE
S1132330137010BD1C10002000F001038207034A33
S113234048BF43F040039361704700BF001000583A
S1132350820700F001030AD50121064A43F0400335
S113236011704FF0B041CA6B22F00302CA63024AF3
S1132370936170471C10002000200058830742BF5F
S11323804022014B5A6170470010005810B500F00C
S1132390E1FA4FF0B04304465B695A06074A03F07A
S11323A0010003F0510348BF40F002005361FFF7FE
S11323B0A9FE2046BDE8104000F0D2BA0020005823
S11323C010B50446FEF71AFA4FF47A729042B0FB45
S11323D0F2F105D23621BDE810400C4800F089BA6C
S11323E00B4BB3FBF1F30B49884201D93C21F2E7D3
S11323F002FB04F0B0FBF3F0022806D9BDE810405C
S11324000323B0FBF3F0FDF79BBE10BD362E000096
S113241040420F00E7CD9A3B53B94AB9002908BF9F
S113242000281CBF4FF0FF314FF0FF3000F082B99D
S1132430ADF1080C6DE904CE00F006F8DDF804E017
S1132440DDE9022304B070472DE9F04F099D0C46E5
S1132450002B4DD18A420F4684469646B2FA82F347
S113246060D94BB102FA03FEC3F120029F4000FA87
S113247003FC20FA02F217434FEA1E461FFA8EF4B9
S11324804FEA1C42B7FBF6F106FB117701FB04F09F
S113249042EA0742904208D91EEB020201F1FF37DB
S11324A002D2904200F231813946121A1FFA8CFC92
S11324B0B2FBF6F006FB102200FB04F44CEA024CDB
S11324C0644508D91EEB0C0C00F1FF3202D26445BE
S11324D000F21E81104640EA0140ACEB040C0021DE
S11324E025B12CFA03F30022C5E90032BDE8F08FD0
S11324F08B4205D90DB1C5E9000100210846F5E775
S1132500B3FA83F100294DD1A342C0F0F380904285
S113251080F0F080064623460846002DE6D0C5E943
S11325200063E3E7002B40F0A3808A1A4FEA1E47BA
S11325301FFA8EF60121B2FBF7F407FB14204FEAD1
S11325401C4242EA004206FB04F090420FD91EEB03
S1132550020204F1FF382CBF4FF001094FF00009CB
S1132560904203D9B9F1000F00F0CC804446121A0E
S11325701FFA8CFCB2FBF7F007FB102200FB06F6F7
S11325804CEA024C664508D91EEB0C0C00F1FF32F4
S113259002D2664500F2B3801046ACEB060C40EA6A
S11325A004409DE7C1F120068B4004FA01FE22FAA3
S11325B006F720FA06FCF4408A401F434EEA0C0357
S11325C000FA01FE4FEA17484FEA13491FFA87FC45
S11325D0B4FBF8F008FB104449EA044400FB0CF98E
S11325E0A1450ED93C1900F1FF3A2CBF4FF0010B65
S11325F04FF0000BA14503D9BBF1000F00F08B8015
S11326005046A4EB09041FFA83F9B4FBF8F308FB62
S1132610134403FB0CFC49EA0444A44506D93C19C1
S113262003F1FF3801D2A4457BD8434643EA004076
S1132630A4EB0C04A0FB02984445CC46434602D3C9
S113264006D1CE4504D20138B9EB020C68EB07037E
S1132650002D6CD0BEEB0C0264EB030422FA01F3F0
S113266004FA06F6CC4000211E43C5E900643DE7A8
S113267002FA03FEC3F1200104FA03F200FA03FC98
S1132680CC404FEA1E4720FA01F11FFA8EF6B4FB44
S1132690F7F00A4307FB1044110C41EA044100FB24
S11326A006F48C420ED91EEB010100F1FF382CBF59
S11326B04FF001094FF000098C4202D9B9F1000F23
S11326C02CD04046091B92B2B1FBF7F407FB14115E
S11326D042EA014204FB06F1914207D91EEB0202D1
S11326E004F1FF3801D291421ED84446521A44EAFA
S11326F0004120E7861A64EB030301200DE7F4444C
S113270002384AE7023C724431E702397244CCE6AB
S1132710F4440238DFE602383C4472E7023871447C
S1132720D0E7023B3C4481E7023C7244DEE72946A1
S1132730DCE600BF704700BF08B5064B044613B182
S11327400021AFF30080044B1B6803B19847204677
S113275000F0D0F800000000A414002070B50D4D66
S113276000260D4C641BA410A64209D10B4D002673
S11327700B4C00F055F9641BA410A64205D170BDA2
S113278055F8043B01369847EEE755F8043B01360B
S11327909847F2E72010002020100020201000208D
S11327A024100020704708B500F01AF9FDF752FD17
S11327B000F023F9FFF7F6FFFAE710B59DF808409B
S11327C041B938B100F121010370427084700330C3
S11327D08842F9D110BDF0B585B0002847D0002358
S11327E064258DF8073003939DF8074003EB4302FB
S11327F004EB44141444045D8DF808409DF807402C
S113280004EB44141444044464788DF809409DF89E
S1132810074004EB441422440024024492788DF8C7
S11328200A20072604F110026A4412F808CC5FFA61
S11328308CFC039AB2F5847F19D24CFA06F212F09A
S1132840010F0CBF202240224A43B2FBF5F2039F42
S1132850013E07F1010E00EB8707CDF80CE07A6228
S1132860E7D20134032CDCD101330B2BBCD105B0EE
S1132870F0BD08B50120FDF769FE2020FDF766FED6
S1132880BDE808404020FDF761BEFDF74DBE08B528
S113289000F00AF8BDE80840FFF7FABB704770473C
S11328A070477047704770470F20704708B5012183
S11328B03A20FEF78FFAFFF7DCFFBDE80840FDF78A
S11328C081BE01213A20FEF785BAFEE710B53AB180
S11328D0002350F8234041F8234001339A42F8D1B1
S11328E010BD002070474FF4004070474FF47A70D9
S11328F07047FEE7FEE708B5FDF792FFBDE8084024
S11329000021FEF741BA0029CCBF01210021FEF7C6
S11329103BBA02214FF42070FEF784BD10B5FDF7D9
S11329206DFF0446FEF792F8C0F102012046FFF75E
S1132930EAFF01210020FEF777FEFEF705FEBDE861
S11329401040FEF73DBBEFF3108072B6704700B93C
S113295062B67047EFF31180302383F31188704718
S113296080F3118870477047704770B50546144668
S11329700E46FFF7E8FF2B685C4034405C402C6057
S1132980BDE87040FFF7E3BF4FF0B0435A6812B19F
S11329909A6A002AFAD17047036BDA0702D50369F1
S11329A05B06F9D4704783695A06FCD5C163836911
S11329B09B06FCD5406AC0B27047002070474FF0B8
S11329C0B0439A6A1207FCD4186A704708B53E20CF
S11329D0FEF72AFA0346FFF7F0FF23FA00F008BDDA
S11329E008B5FDF775FDFFF750FFFFF750FFFFF740
S11329F055FFBDE80840FFF752BF08B5FFF750FF89
S1132A00FFF74FFFFFF74EFFBDE80840FFF74BBF4E
S1132A1002440346934200D1704703F8011BF9E7CF
S1132A20F8B500BFF8BC08BC9E467047F8B500BFB7
S1132A30F8BC08BC9E46704700000000000000007F
S1132A400000000000000000000000000000000082
S1132A500000000000000000000000000000000072
S1132A601E0000032F55736572732F736E616964C2
S1132A70657262617574697374612F53696D706CEA
S1132A80696369747953747564696F2F76355F77F8
S1132A906F726B73706163652F6C65645F737472BE
S1132AA069705F6765636B6F2F6765636B6F5F73D7
S1132AB0646B5F342E342E362F706C6174666F72C3
S1132AC06D2F656D6C69622F696E632F656D5F7420
S1132AD0696D65722E68002E2E2F6765636B6F5FBC
S1132AE073646B5F342E342E362F686172647761A1
S1132AF072652F626F6172642F7372632F736C5FE0
S1132B00626F6172645F636F6E74726F6C5F677023
S1132B10696F2E6300000000050000000000000043
S1132B2040420F000501000000000000000000000A
S1132B30000000002E2E2F6765636B6F5F73646B5C
S1132B405F342E342E362F706C6174666F726D2F65
S1132B506472697665722F70776D2F7372632F7349
S1132B606C5F70776D2E63002E2E2F6765636B6F1D
S1132B705F73646B5F342E342E362F706C61746611
S1132B806F726D2F656D6C69622F7372632F656D43
S1132B905F636D752E63002E2E2F6765636B6F5F09
S1132BA073646B5F342E342E362F706C6174666FD1
S1132BB0726D2F656D6C69622F7372632F656D5F23
S1132BC0656D752E63002F55736572732F736E6177
S1132BD06964657262617574697374612F53696D98
S1132BE0706C696369747953747564696F2F763591
S1132BF05F776F726B73706163652F6C65645F736D
S1132C00747269705F6765636B6F2F6765636B6F61
S1132C105F73646B5F342E342E362F706C61746670
S1132C206F726D2F656D6C69622F696E632F656DB0
S1132C305F6770696F2E68002E2E2F6765636B6F58
S1132C405F73646B5F342E342E362F706C61746640
S1132C506F726D2F656D6C69622F7372632F656D72
S1132C605F6770696F2E6300FF011F00FF000F0094
S1132C702E2E2F6765636B6F5F73646B5F342E3426
S1132C802E362F706C6174666F726D2F656D6C6972
S1132C90622F7372632F656D5F6C646D612E6300C8
S1132CA02F55736572732F736E6169646572626107
S1132CB07574697374612F53696D706C6963697499
S1132CC07953747564696F2F76355F776F726B73A0
S1132CD0706163652F6C65645F73747269705F679C
S1132CE065636B6F2F6765636B6F5F73646B5F34D2
S1132CF02E342E362F706C6174666F726D2F656D75
S1132D006C69622F696E632F656D5F6275732E68DF
S1132D10002E2E2F6765636B6F5F73646B5F342EB9
S1132D20342E362F706C6174666F726D2F656D6C06
S1132D3069622F7372632F656D5F727463632E63B0
S1132D40002E2E2F6765636B6F5F73646B5F342E89
S1132D50342E362F706C6174666F726D2F656D6CD6
S1132D6069622F7372632F656D5F74696D65722E6E
S1132D7063002E2E2F6765636B6F5F73646B5F3424
S1132D802E342E362F706C6174666F726D2F656DE4
S1132D906C69622F7372632F656D5F7573617274F2
S1132DA02E63000103040101010903000B0000006C
S1132DB00B000000020000000000202000000000C2
S1132DC0030000008C8C3C000000000000000000A8
S1132DD000000000012600000400000000000000C4
S1132DE000010000000000002E2E2F6765636B6F4A
S1132DF05F73646B5F342E342E362F706C6174668F
S1132E006F726D2F736572766963652F736C656578
S1132E107074696D65722F7372632F736C5F736C5A
S1132E2065657074696D65722E63000100000005AC
S1132E300002000003002E2E2F6765636B6F5F7323
S1132E40646B5F342E342E362F706C6174666F722F
S1132E506D2F736572766963652F7564656C61792E
S1132E602F7372632F736C5F7564656C61792E6365
S1072E70000000005A
S10B2E7464D3FF7F010000009C
S10F2E7C882E0000001000200A00000056
S1132E880080045000010000C0EA2101C0EA2101C9
S1132E980080000000F04902FFFFFFFF010000006E
S10B2EA8B50100008D010000DA
S90306F501
